03300000        2004079093000142000190130282588     006650350           E XXX CARGA TRANSPORTEX E LOGIBANCO SANTANDER (BRASIL) S/A            204072016      000374040                                                                          
03346561T01  040 2004079093000142006650350           000190130282588     E XXX CARGA TRANSPORTEX E LOGI                                                                                0000037404072016                                         
0334656300001T 06000190130282588        000000958211841950           0407201600000000037500034131300                         002007021336000180XXXXXX IMPORTAXXX E EXPORTACAO LTDA     01302825880000000000000000400000000                      
0334656300002U 060000000000000000000000000000000000000000000000000000000000000000000003750000000000000000000000000000000000000000000000000407201604072016000000000000000000000000000                              000                           
0334656300003T 14000190130282588        000000958310621493           0407201600000000026730003300019                         002014310577003049CONSTRUTORA XXX S.A.                    01302825880000000000003100000000000                      
0334656300004U 140000000000000000000000000000000000000000000000000000000000000000000000000000000000000000000000000000000000000000000000000407201604072016000000000000000000000000000                              000                           
0334656300005T 06000190130282588        000000958310621493           0407201600000000026730034109100                         002014310577003049CONSTRUTORA BBB S.A.                    01302825880000000000000000400000000                      
0334656300006U 060000000000000000000000000000000000000000000000000000000000000000000002673000000000002673000000000000000000000000000000000407201605072016000000000000000000000000000                              000                           
0334656300007T 06000190130282588        000000958313021512           0407201600000000037400034107570                         002001367996000130XXXXX CONTABILIXXXXX                    01302825880000000000000000400000000                      
0334656300008U 060000000000000000000000000000000000000000000000000000000000000000000003740000000000003740000000000000000000000000000000000407201605072016000000000000000000000000000                              000                           
0334656300009T 06000190130282588        000000958314921511           0407201600000000037000023733950                         002043158302000286FFFFFFFFFF MERCANTIL DE RRRRR LTDA      01302825880000000000000000400000000                      
0334656300010U 060000000000000000000000000000000000000000000000000000000000000000000003700000000000003700000000000000000000000000000000000407201605072016000000000000000000000000000                              000                           
0334656300011T 06000190130282588        000003133243920000000004     040720160000000007418253411012000000033000100196650350-9002060761889000747RRRRR DE UUUU E BBBBBBBB DE SAO PAULO   01302825880000000000000000400000000                      
0334656300012U 060000000000000000000000000000000000000000000000000000000000000000000007418250000000007418250000000000000000000000000000000407201605072016000000000000000000000000000                              000                           
0334656300013T 06000190130282588        000004820873620000000005     040720160000000002334152370105000000033000100196650350-9002001574681000164NVVV GGGGGGGGGGGGG E INFORMATICA LTDA01302825880000000000000000400000000                      
0334656300014U 060000000000000000000000000000000000000000000000000000000000000000000002334150000000002334150000000000000000000000000000000407201605072016000000000000000000000000000                              000                           
03346565         0000140000220000000000832635000000000000000000000000000000000000000000000000000090000000000465460400000368                                                                                                                     
03346569         000001000018                                                                                                                                                                                                                   
